{
    "contractName": "MediumAccess",
    "abi": [
        {
            "inputs": [
                {
                    "internalType": "address",
                    "name": "initialOwner",
                    "type": "address"
                },
                {
                    "internalType": "uint256",
                    "name": "_mintPrice",
                    "type": "uint256"
                }
            ],
            "stateMutability": "nonpayable",
            "type": "constructor"
        },
        {
            "inputs": [
                {
                    "internalType": "address",
                    "name": "sender",
                    "type": "address"
                },
                {
                    "internalType": "uint256",
                    "name": "balance",
                    "type": "uint256"
                },
                {
                    "internalType": "uint256",
                    "name": "needed",
                    "type": "uint256"
                },
                {
                    "internalType": "uint256",
                    "name": "tokenId",
                    "type": "uint256"
                }
            ],
            "name": "ERC1155InsufficientBalance",
            "type": "error"
        },
        {
            "inputs": [
                {
                    "internalType": "address",
                    "name": "approver",
                    "type": "address"
                }
            ],
            "name": "ERC1155InvalidApprover",
            "type": "error"
        },
        {
            "inputs": [
                {
                    "internalType": "uint256",
                    "name": "idsLength",
                    "type": "uint256"
                },
                {
                    "internalType": "uint256",
                    "name": "valuesLength",
                    "type": "uint256"
                }
            ],
            "name": "ERC1155InvalidArrayLength",
            "type": "error"
        },
        {
            "inputs": [
                {
                    "internalType": "address",
                    "name": "operator",
                    "type": "address"
                }
            ],
            "name": "ERC1155InvalidOperator",
            "type": "error"
        },
        {
            "inputs": [
                {
                    "internalType": "address",
                    "name": "receiver",
                    "type": "address"
                }
            ],
            "name": "ERC1155InvalidReceiver",
            "type": "error"
        },
        {
            "inputs": [
                {
                    "internalType": "address",
                    "name": "sender",
                    "type": "address"
                }
            ],
            "name": "ERC1155InvalidSender",
            "type": "error"
        },
        {
            "inputs": [
                {
                    "internalType": "address",
                    "name": "operator",
                    "type": "address"
                },
                {
                    "internalType": "address",
                    "name": "owner",
                    "type": "address"
                }
            ],
            "name": "ERC1155MissingApprovalForAll",
            "type": "error"
        },
        {
            "inputs": [
                {
                    "internalType": "address",
                    "name": "owner",
                    "type": "address"
                }
            ],
            "name": "OwnableInvalidOwner",
            "type": "error"
        },
        {
            "inputs": [
                {
                    "internalType": "address",
                    "name": "account",
                    "type": "address"
                }
            ],
            "name": "OwnableUnauthorizedAccount",
            "type": "error"
        },
        {
            "anonymous": false,
            "inputs": [
                {
                    "indexed": true,
                    "internalType": "address",
                    "name": "account",
                    "type": "address"
                },
                {
                    "indexed": true,
                    "internalType": "address",
                    "name": "operator",
                    "type": "address"
                },
                {
                    "indexed": false,
                    "internalType": "bool",
                    "name": "approved",
                    "type": "bool"
                }
            ],
            "name": "ApprovalForAll",
            "type": "event"
        },
        {
            "anonymous": false,
            "inputs": [
                {
                    "indexed": true,
                    "internalType": "address",
                    "name": "previousOwner",
                    "type": "address"
                },
                {
                    "indexed": true,
                    "internalType": "address",
                    "name": "newOwner",
                    "type": "address"
                }
            ],
            "name": "OwnershipTransferred",
            "type": "event"
        },
        {
            "anonymous": false,
            "inputs": [
                {
                    "indexed": true,
                    "internalType": "address",
                    "name": "operator",
                    "type": "address"
                },
                {
                    "indexed": true,
                    "internalType": "address",
                    "name": "from",
                    "type": "address"
                },
                {
                    "indexed": true,
                    "internalType": "address",
                    "name": "to",
                    "type": "address"
                },
                {
                    "indexed": false,
                    "internalType": "uint256[]",
                    "name": "ids",
                    "type": "uint256[]"
                },
                {
                    "indexed": false,
                    "internalType": "uint256[]",
                    "name": "values",
                    "type": "uint256[]"
                }
            ],
            "name": "TransferBatch",
            "type": "event"
        },
        {
            "anonymous": false,
            "inputs": [
                {
                    "indexed": true,
                    "internalType": "address",
                    "name": "operator",
                    "type": "address"
                },
                {
                    "indexed": true,
                    "internalType": "address",
                    "name": "from",
                    "type": "address"
                },
                {
                    "indexed": true,
                    "internalType": "address",
                    "name": "to",
                    "type": "address"
                },
                {
                    "indexed": false,
                    "internalType": "uint256",
                    "name": "id",
                    "type": "uint256"
                },
                {
                    "indexed": false,
                    "internalType": "uint256",
                    "name": "value",
                    "type": "uint256"
                }
            ],
            "name": "TransferSingle",
            "type": "event"
        },
        {
            "anonymous": false,
            "inputs": [
                {
                    "indexed": false,
                    "internalType": "string",
                    "name": "value",
                    "type": "string"
                },
                {
                    "indexed": true,
                    "internalType": "uint256",
                    "name": "id",
                    "type": "uint256"
                }
            ],
            "name": "URI",
            "type": "event"
        },
        {
            "inputs": [
                {
                    "internalType": "address",
                    "name": "",
                    "type": "address"
                }
            ],
            "name": "aggregated",
            "outputs": [
                {
                    "internalType": "uint256",
                    "name": "",
                    "type": "uint256"
                }
            ],
            "stateMutability": "view",
            "type": "function"
        },
        {
            "inputs": [
                {
                    "internalType": "address",
                    "name": "account",
                    "type": "address"
                },
                {
                    "internalType": "uint256",
                    "name": "id",
                    "type": "uint256"
                }
            ],
            "name": "balanceOf",
            "outputs": [
                {
                    "internalType": "uint256",
                    "name": "",
                    "type": "uint256"
                }
            ],
            "stateMutability": "view",
            "type": "function"
        },
        {
            "inputs": [
                {
                    "internalType": "address[]",
                    "name": "accounts",
                    "type": "address[]"
                },
                {
                    "internalType": "uint256[]",
                    "name": "ids",
                    "type": "uint256[]"
                }
            ],
            "name": "balanceOfBatch",
            "outputs": [
                {
                    "internalType": "uint256[]",
                    "name": "",
                    "type": "uint256[]"
                }
            ],
            "stateMutability": "view",
            "type": "function"
        },
        {
            "inputs": [
                {
                    "internalType": "address",
                    "name": "creator",
                    "type": "address"
                },
                {
                    "internalType": "uint256",
                    "name": "articleId",
                    "type": "uint256"
                },
                {
                    "internalType": "bool",
                    "name": "isPaying",
                    "type": "bool"
                }
            ],
            "name": "createTokenId",
            "outputs": [
                {
                    "internalType": "uint256",
                    "name": "",
                    "type": "uint256"
                }
            ],
            "stateMutability": "pure",
            "type": "function"
        },
        {
            "inputs": [
                {
                    "internalType": "address",
                    "name": "account",
                    "type": "address"
                },
                {
                    "internalType": "address",
                    "name": "operator",
                    "type": "address"
                }
            ],
            "name": "isApprovedForAll",
            "outputs": [
                {
                    "internalType": "bool",
                    "name": "",
                    "type": "bool"
                }
            ],
            "stateMutability": "view",
            "type": "function"
        },
        {
            "inputs": [
                {
                    "internalType": "address",
                    "name": "account",
                    "type": "address"
                },
                {
                    "internalType": "uint256",
                    "name": "id",
                    "type": "uint256"
                },
                {
                    "internalType": "uint256",
                    "name": "amount",
                    "type": "uint256"
                },
                {
                    "internalType": "bytes",
                    "name": "data",
                    "type": "bytes"
                }
            ],
            "name": "mint",
            "outputs": [],
            "stateMutability": "payable",
            "type": "function"
        },
        {
            "inputs": [
                {
                    "internalType": "address",
                    "name": "to",
                    "type": "address"
                },
                {
                    "internalType": "uint256[]",
                    "name": "ids",
                    "type": "uint256[]"
                },
                {
                    "internalType": "uint256[]",
                    "name": "amounts",
                    "type": "uint256[]"
                },
                {
                    "internalType": "bytes",
                    "name": "data",
                    "type": "bytes"
                }
            ],
            "name": "mintBatch",
            "outputs": [],
            "stateMutability": "nonpayable",
            "type": "function"
        },
        {
            "inputs": [],
            "name": "mintPrice",
            "outputs": [
                {
                    "internalType": "uint256",
                    "name": "",
                    "type": "uint256"
                }
            ],
            "stateMutability": "view",
            "type": "function"
        },
        {
            "inputs": [],
            "name": "owner",
            "outputs": [
                {
                    "internalType": "address",
                    "name": "",
                    "type": "address"
                }
            ],
            "stateMutability": "view",
            "type": "function"
        },
        {
            "inputs": [
                {
                    "internalType": "uint256",
                    "name": "tokenId",
                    "type": "uint256"
                }
            ],
            "name": "parseTokenId",
            "outputs": [
                {
                    "internalType": "address",
                    "name": "",
                    "type": "address"
                },
                {
                    "internalType": "uint256",
                    "name": "",
                    "type": "uint256"
                },
                {
                    "internalType": "bool",
                    "name": "",
                    "type": "bool"
                }
            ],
            "stateMutability": "pure",
            "type": "function"
        },
        {
            "inputs": [],
            "name": "renounceOwnership",
            "outputs": [],
            "stateMutability": "nonpayable",
            "type": "function"
        },
        {
            "inputs": [
                {
                    "internalType": "address",
                    "name": "from",
                    "type": "address"
                },
                {
                    "internalType": "address",
                    "name": "to",
                    "type": "address"
                },
                {
                    "internalType": "uint256[]",
                    "name": "ids",
                    "type": "uint256[]"
                },
                {
                    "internalType": "uint256[]",
                    "name": "values",
                    "type": "uint256[]"
                },
                {
                    "internalType": "bytes",
                    "name": "data",
                    "type": "bytes"
                }
            ],
            "name": "safeBatchTransferFrom",
            "outputs": [],
            "stateMutability": "nonpayable",
            "type": "function"
        },
        {
            "inputs": [
                {
                    "internalType": "address",
                    "name": "from",
                    "type": "address"
                },
                {
                    "internalType": "address",
                    "name": "to",
                    "type": "address"
                },
                {
                    "internalType": "uint256",
                    "name": "id",
                    "type": "uint256"
                },
                {
                    "internalType": "uint256",
                    "name": "value",
                    "type": "uint256"
                },
                {
                    "internalType": "bytes",
                    "name": "data",
                    "type": "bytes"
                }
            ],
            "name": "safeTransferFrom",
            "outputs": [],
            "stateMutability": "nonpayable",
            "type": "function"
        },
        {
            "inputs": [
                {
                    "internalType": "address",
                    "name": "operator",
                    "type": "address"
                },
                {
                    "internalType": "bool",
                    "name": "approved",
                    "type": "bool"
                }
            ],
            "name": "setApprovalForAll",
            "outputs": [],
            "stateMutability": "nonpayable",
            "type": "function"
        },
        {
            "inputs": [
                {
                    "internalType": "string",
                    "name": "newuri",
                    "type": "string"
                }
            ],
            "name": "setURI",
            "outputs": [],
            "stateMutability": "nonpayable",
            "type": "function"
        },
        {
            "inputs": [
                {
                    "internalType": "bytes4",
                    "name": "interfaceId",
                    "type": "bytes4"
                }
            ],
            "name": "supportsInterface",
            "outputs": [
                {
                    "internalType": "bool",
                    "name": "",
                    "type": "bool"
                }
            ],
            "stateMutability": "view",
            "type": "function"
        },
        {
            "inputs": [
                {
                    "internalType": "address",
                    "name": "newOwner",
                    "type": "address"
                }
            ],
            "name": "transferOwnership",
            "outputs": [],
            "stateMutability": "nonpayable",
            "type": "function"
        },
        {
            "inputs": [
                {
                    "internalType": "uint256",
                    "name": "",
                    "type": "uint256"
                }
            ],
            "name": "uri",
            "outputs": [
                {
                    "internalType": "string",
                    "name": "",
                    "type": "string"
                }
            ],
            "stateMutability": "view",
            "type": "function"
        },
        {
            "inputs": [],
            "name": "withdraw",
            "outputs": [],
            "stateMutability": "nonpayable",
            "type": "function"
        }
    ],
    "bytecode": "608060405234801562000010575f80fd5b5060405162001c2038038062001c208339810160408190526200003391620000f6565b60408051602081019091525f815282906200004e8162000093565b506001600160a01b0381166200007d57604051631e4fbdf760e01b81525f600482015260240160405180910390fd5b6200008881620000a5565b506005555062000299565b6002620000a18282620001cd565b5050565b600380546001600160a01b038381166001600160a01b0319831681179093556040519116919082907f8be0079c531659141344cd1fd0a4f28419497f9722a3daafe3b4186f6b6457e0905f90a35050565b5f806040838503121562000108575f80fd5b82516001600160a01b03811681146200011f575f80fd5b6020939093015192949293505050565b634e487b7160e01b5f52604160045260245ffd5b600181811c908216806200015857607f821691505b6020821081036200017757634e487b7160e01b5f52602260045260245ffd5b50919050565b601f821115620001c857805f5260205f20601f840160051c81016020851015620001a45750805b601f840160051c820191505b81811015620001c5575f8155600101620001b0565b50505b505050565b81516001600160401b03811115620001e957620001e96200012f565b6200020181620001fa845462000143565b846200017d565b602080601f83116001811462000237575f84156200021f5750858301515b5f19600386901b1c1916600185901b17855562000291565b5f85815260208120601f198616915b82811015620002675788860151825594840194600190910190840162000246565b50858210156200028557878501515f19600388901b60f8161c191681555b505060018460011b0185555b505050505050565b61197980620002a75f395ff3fe60806040526004361061010f575f3560e01c80634e1273f41161009d5780639fc41d44116100625780639fc41d4414610322578063a22cb4651461034d578063e985e9c51461036c578063f242432a1461038b578063f2fde38b146103aa575f80fd5b80634e1273f4146102935780636817c76c146102bf578063715018a6146102d4578063731133e9146102e85780638da5cb5b146102fb575f80fd5b8063121de94a116100e3578063121de94a146101c1578063172983ed146102225780631f7fdffa146102415780632eb2c2d6146102605780633ccfd60b1461027f575f80fd5b8062fdd58e1461011357806301ffc9a71461014557806302fe5305146101745780630e89341c14610195575b5f80fd5b34801561011e575f80fd5b5061013261012d3660046110ec565b6103c9565b6040519081526020015b60405180910390f35b348015610150575f80fd5b5061016461015f366004611129565b6103f0565b604051901515815260200161013c565b34801561017f575f80fd5b5061019361018e3660046111e5565b61043f565b005b3480156101a0575f80fd5b506101b46101af36600461122a565b610453565b60405161013c9190611284565b3480156101cc575f80fd5b506101fb6101db36600461122a565b606081901c91600182811c6b7fffffffffffffffffffffff169281161490565b604080516001600160a01b039094168452602084019290925215159082015260600161013c565b34801561022d575f80fd5b5061013261023c3660046112a5565b6104e5565b34801561024c575f80fd5b5061019361025b36600461138b565b610576565b34801561026b575f80fd5b5061019361027a36600461141e565b610590565b34801561028a575f80fd5b506101936105f7565b34801561029e575f80fd5b506102b26102ad3660046114c1565b6106b4565b60405161013c91906115b5565b3480156102ca575f80fd5b5061013260055481565b3480156102df575f80fd5b5061019361077f565b6101936102f63660046115c7565b610792565b348015610306575f80fd5b506003546040516001600160a01b03909116815260200161013c565b34801561032d575f80fd5b5061013261033c366004611618565b60046020525f908152604090205481565b348015610358575f80fd5b50610193610367366004611631565b6108f2565b348015610377575f80fd5b50610164610386366004611662565b610901565b348015610396575f80fd5b506101936103a536600461168a565b61092e565b3480156103b5575f80fd5b506101936103c4366004611618565b61098d565b5f818152602081815260408083206001600160a01b03861684529091529020545b92915050565b5f6001600160e01b03198216636cdb3d1360e11b148061042057506001600160e01b031982166303a24d0760e21b145b806103ea57506301ffc9a760e01b6001600160e01b03198316146103ea565b6104476109c7565b610450816109f4565b50565b606060028054610462906116ea565b80601f016020809104026020016040519081016040528092919081815260200182805461048e906116ea565b80156104d95780601f106104b0576101008083540402835291602001916104d9565b820191905f5260205f20905b8154815290600101906020018083116104bc57829003601f168201915b50505050509050919050565b5f6001605f1b8311156105365760405162461bcd60e51b815260206004820152601460248201527341727469636c6520494420746f6f206c6172676560601b60448201526064015b60405180910390fd5b5f610558600185901b6bffffffffffffffffffffffff19606088901b16611722565b9050821561056e5761056b600182611722565b90505b949350505050565b61057e6109c7565b61058a84848484610a00565b50505050565b336001600160a01b03861681148015906105b157506105af8682610901565b155b156105e25760405163711bec9160e11b81526001600160a01b0380831660048301528716602482015260440161052d565b6105ef8686868686610a36565b505050505050565b335f908152600460205260408120549081900361064d5760405162461bcd60e51b81526020600482015260146024820152734e6f2066756e647320746f20776974686472617760601b604482015260640161052d565b335f818152600460205260408082208290555183156108fc0291849190818181858888f193505050506104505760405162461bcd60e51b815260206004820152600f60248201526e151c985b9cd9995c8819985a5b1959608a1b604482015260640161052d565b606081518351146106e55781518351604051635b05999160e01b81526004810192909252602482015260440161052d565b5f835167ffffffffffffffff8111156107005761070061114b565b604051908082528060200260200182016040528015610729578160200160208202803683370190505b5090505f5b845181101561077757602080820286010151610752906020808402870101516103c9565b82828151811061076457610764611741565b602090810291909101015260010161072e565b509392505050565b6107876109c7565b6107905f610a9b565b565b5f61079d85856103c9565b11156107db5760405162461bcd60e51b815260206004820152600d60248201526c105b1c9958591e481bdddb9959609a1b604482015260640161052d565b816001146108245760405162461bcd60e51b8152602060048201526016602482015275125b9d985b1a5908185b5bdd5b9d081d1bc81b5a5b9d60521b604482015260640161052d565b5f8061084a85606081901c91600182811c6b7fffffffffffffffffffffff169281161490565b9250509150336001600160a01b0316826001600160a01b0316146108e65780801561087757506005543414155b156108b45760405162461bcd60e51b815260206004820152600d60248201526c496e76616c69642046756e647360981b604482015260640161052d565b6001600160a01b0382165f90815260046020526040812080543492906108db908490611722565b909155506108e69050565b6105ef86868686610aec565b6108fd338383610b47565b5050565b6001600160a01b039182165f90815260016020908152604080832093909416825291909152205460ff1690565b336001600160a01b038616811480159061094f575061094d8682610901565b155b156109805760405163711bec9160e11b81526001600160a01b0380831660048301528716602482015260440161052d565b6105ef8686868686610bdb565b6109956109c7565b6001600160a01b0381166109be57604051631e4fbdf760e01b81525f600482015260240161052d565b61045081610a9b565b6003546001600160a01b031633146107905760405163118cdaa760e01b815233600482015260240161052d565b60026108fd828261179e565b6001600160a01b038416610a2957604051632bfa23e760e11b81525f600482015260240161052d565b61058a5f85858585610c67565b6001600160a01b038416610a5f57604051632bfa23e760e11b81525f600482015260240161052d565b6001600160a01b038516610a8757604051626a0d4560e21b81525f600482015260240161052d565b610a948585858585610c67565b5050505050565b600380546001600160a01b038381166001600160a01b0319831681179093556040519116919082907f8be0079c531659141344cd1fd0a4f28419497f9722a3daafe3b4186f6b6457e0905f90a35050565b6001600160a01b038416610b1557604051632bfa23e760e11b81525f600482015260240161052d565b604080516001808252602082018690528183019081526060820185905260808201909252906105ef5f87848487610c67565b6001600160a01b038216610b6f5760405162ced3e160e81b81525f600482015260240161052d565b6001600160a01b038381165f81815260016020908152604080832094871680845294825291829020805460ff191686151590811790915591519182527f17307eab39ab6107e8899845ad3d59bd9653f200f220920489ca2b5937696c31910160405180910390a3505050565b6001600160a01b038416610c0457604051632bfa23e760e11b81525f600482015260240161052d565b6001600160a01b038516610c2c57604051626a0d4560e21b81525f600482015260240161052d565b60408051600180825260208201869052818301908152606082018590526080820190925290610c5e8787848487610c67565b50505050505050565b610c7385858585610cba565b6001600160a01b03841615610a945782513390600103610cac5760208481015190840151610ca5838989858589610ec9565b50506105ef565b6105ef818787878787610fea565b8051825114610ce95781518151604051635b05999160e01b81526004810192909252602482015260440161052d565b335f5b8351811015610deb576020818102858101820151908501909101516001600160a01b03881615610d9d575f828152602081815260408083206001600160a01b038c16845290915290205481811015610d77576040516303dee4c560e01b81526001600160a01b038a16600482015260248101829052604481018390526064810184905260840161052d565b5f838152602081815260408083206001600160a01b038d16845290915290209082900390555b6001600160a01b03871615610de1575f828152602081815260408083206001600160a01b038b16845290915281208054839290610ddb908490611722565b90915550505b5050600101610cec565b508251600103610e6b5760208301515f906020840151909150856001600160a01b0316876001600160a01b0316846001600160a01b03167fc3d58168c5ae7397731d063d5bbf3d657854427343f4c083240f7aacaa2d0f628585604051610e5c929190918252602082015260400190565b60405180910390a45050610a94565b836001600160a01b0316856001600160a01b0316826001600160a01b03167f4a39dc06d4c0dbc64b70af90fd698a233a518aa5d07e595d983b8c0526c8f7fb8686604051610eba92919061185a565b60405180910390a45050505050565b6001600160a01b0384163b156105ef5760405163f23a6e6160e01b81526001600160a01b0385169063f23a6e6190610f0d9089908990889088908890600401611887565b6020604051808303815f875af1925050508015610f47575060408051601f3d908101601f19168201909252610f44918101906118cb565b60015b610fae573d808015610f74576040519150601f19603f3d011682016040523d82523d5f602084013e610f79565b606091505b5080515f03610fa657604051632bfa23e760e11b81526001600160a01b038616600482015260240161052d565b805181602001fd5b6001600160e01b0319811663f23a6e6160e01b14610c5e57604051632bfa23e760e11b81526001600160a01b038616600482015260240161052d565b6001600160a01b0384163b156105ef5760405163bc197c8160e01b81526001600160a01b0385169063bc197c819061102e90899089908890889088906004016118e6565b6020604051808303815f875af1925050508015611068575060408051601f3d908101601f19168201909252611065918101906118cb565b60015b611095573d808015610f74576040519150601f19603f3d011682016040523d82523d5f602084013e610f79565b6001600160e01b0319811663bc197c8160e01b14610c5e57604051632bfa23e760e11b81526001600160a01b038616600482015260240161052d565b80356001600160a01b03811681146110e7575f80fd5b919050565b5f80604083850312156110fd575f80fd5b611106836110d1565b946020939093013593505050565b6001600160e01b031981168114610450575f80fd5b5f60208284031215611139575f80fd5b813561114481611114565b9392505050565b634e487b7160e01b5f52604160045260245ffd5b604051601f8201601f1916810167ffffffffffffffff811182821017156111885761118861114b565b604052919050565b5f67ffffffffffffffff8311156111a9576111a961114b565b6111bc601f8401601f191660200161115f565b90508281528383830111156111cf575f80fd5b828260208301375f602084830101529392505050565b5f602082840312156111f5575f80fd5b813567ffffffffffffffff81111561120b575f80fd5b8201601f8101841361121b575f80fd5b61056e84823560208401611190565b5f6020828403121561123a575f80fd5b5035919050565b5f81518084525f5b8181101561126557602081850181015186830182015201611249565b505f602082860101526020601f19601f83011685010191505092915050565b602081525f6111446020830184611241565b803580151581146110e7575f80fd5b5f805f606084860312156112b7575f80fd5b6112c0846110d1565b9250602084013591506112d560408501611296565b90509250925092565b5f67ffffffffffffffff8211156112f7576112f761114b565b5060051b60200190565b5f82601f830112611310575f80fd5b81356020611325611320836112de565b61115f565b8083825260208201915060208460051b870101935086841115611346575f80fd5b602086015b84811015611362578035835291830191830161134b565b509695505050505050565b5f82601f83011261137c575f80fd5b61114483833560208501611190565b5f805f806080858703121561139e575f80fd5b6113a7856110d1565b9350602085013567ffffffffffffffff808211156113c3575f80fd5b6113cf88838901611301565b945060408701359150808211156113e4575f80fd5b6113f088838901611301565b93506060870135915080821115611405575f80fd5b506114128782880161136d565b91505092959194509250565b5f805f805f60a08688031215611432575f80fd5b61143b866110d1565b9450611449602087016110d1565b9350604086013567ffffffffffffffff80821115611465575f80fd5b61147189838a01611301565b94506060880135915080821115611486575f80fd5b61149289838a01611301565b935060808801359150808211156114a7575f80fd5b506114b48882890161136d565b9150509295509295909350565b5f80604083850312156114d2575f80fd5b823567ffffffffffffffff808211156114e9575f80fd5b818501915085601f8301126114fc575f80fd5b8135602061150c611320836112de565b82815260059290921b8401810191818101908984111561152a575f80fd5b948201945b8386101561154f57611540866110d1565b8252948201949082019061152f565b96505086013592505080821115611564575f80fd5b5061157185828601611301565b9150509250929050565b5f815180845260208085019450602084015f5b838110156115aa5781518752958201959082019060010161158e565b509495945050505050565b602081525f611144602083018461157b565b5f805f80608085870312156115da575f80fd5b6115e3856110d1565b93506020850135925060408501359150606085013567ffffffffffffffff81111561160c575f80fd5b6114128782880161136d565b5f60208284031215611628575f80fd5b611144826110d1565b5f8060408385031215611642575f80fd5b61164b836110d1565b915061165960208401611296565b90509250929050565b5f8060408385031215611673575f80fd5b61167c836110d1565b9150611659602084016110d1565b5f805f805f60a0868803121561169e575f80fd5b6116a7866110d1565b94506116b5602087016110d1565b93506040860135925060608601359150608086013567ffffffffffffffff8111156116de575f80fd5b6114b48882890161136d565b600181811c908216806116fe57607f821691505b60208210810361171c57634e487b7160e01b5f52602260045260245ffd5b50919050565b808201808211156103ea57634e487b7160e01b5f52601160045260245ffd5b634e487b7160e01b5f52603260045260245ffd5b601f82111561179957805f5260205f20601f840160051c8101602085101561177a5750805b601f840160051c820191505b81811015610a94575f8155600101611786565b505050565b815167ffffffffffffffff8111156117b8576117b861114b565b6117cc816117c684546116ea565b84611755565b602080601f8311600181146117ff575f84156117e85750858301515b5f19600386901b1c1916600185901b1785556105ef565b5f85815260208120601f198616915b8281101561182d5788860151825594840194600190910190840161180e565b508582101561184a57878501515f19600388901b60f8161c191681555b5050505050600190811b01905550565b604081525f61186c604083018561157b565b828103602084015261187e818561157b565b95945050505050565b6001600160a01b03868116825285166020820152604081018490526060810183905260a0608082018190525f906118c090830184611241565b979650505050505050565b5f602082840312156118db575f80fd5b815161114481611114565b6001600160a01b0386811682528516602082015260a0604082018190525f906119119083018661157b565b8281036060840152611923818661157b565b905082810360808401526119378185611241565b9897505050505050505056fea26469706673582212206a2d3d63ad4d7425339cf683ed57c63c4aa601f2cb5614ceacef38b3627934b064736f6c63430008160033",
    "sourcePath": "c:/Users/William/Documents/Work/Hackatons/Avalanche/avalanche_hackathon/contracts/MediumAccess.sol",
    "compiler": {
        "name": "solc",
        "version": "0.8.22+commit.4fc1097e"
    },
    "functionHashes": {
        "aggregated(address)": "9fc41d44",
        "balanceOf(address,uint256)": "00fdd58e",
        "balanceOfBatch(address[],uint256[])": "4e1273f4",
        "createTokenId(address,uint256,bool)": "172983ed",
        "isApprovedForAll(address,address)": "e985e9c5",
        "mint(address,uint256,uint256,bytes)": "731133e9",
        "mintBatch(address,uint256[],uint256[],bytes)": "1f7fdffa",
        "mintPrice()": "6817c76c",
        "owner()": "8da5cb5b",
        "parseTokenId(uint256)": "121de94a",
        "renounceOwnership()": "715018a6",
        "safeBatchTransferFrom(address,address,uint256[],uint256[],bytes)": "2eb2c2d6",
        "safeTransferFrom(address,address,uint256,uint256,bytes)": "f242432a",
        "setApprovalForAll(address,bool)": "a22cb465",
        "setURI(string)": "02fe5305",
        "supportsInterface(bytes4)": "01ffc9a7",
        "transferOwnership(address)": "f2fde38b",
        "uri(uint256)": "0e89341c",
        "withdraw()": "3ccfd60b"
    },
    "gasEstimates": {
        "creation": {
            "codeDepositCost": "1304200",
            "executionCost": "infinite",
            "totalCost": "infinite"
        },
        "external": {
            "aggregated(address)": "2527",
            "balanceOf(address,uint256)": "2657",
            "balanceOfBatch(address[],uint256[])": "infinite",
            "createTokenId(address,uint256,bool)": "infinite",
            "isApprovedForAll(address,address)": "infinite",
            "mint(address,uint256,uint256,bytes)": "infinite",
            "mintBatch(address,uint256[],uint256[],bytes)": "infinite",
            "mintPrice()": "2328",
            "owner()": "2411",
            "parseTokenId(uint256)": "404",
            "renounceOwnership()": "infinite",
            "safeBatchTransferFrom(address,address,uint256[],uint256[],bytes)": "infinite",
            "safeTransferFrom(address,address,uint256,uint256,bytes)": "infinite",
            "setApprovalForAll(address,bool)": "infinite",
            "setURI(string)": "infinite",
            "supportsInterface(bytes4)": "575",
            "transferOwnership(address)": "28443",
            "uri(uint256)": "infinite",
            "withdraw()": "infinite"
        }
    }
}